:020000040800F2
:10000000F8130020C9010008B7160008F915000808
:10001000B516000877030008FF3000080000000054
:10002000000000000000000000000000671A000847
:100030008503000800000000651A0008691A00081E
:10004000E3010008E3010008E3010008E301000800
:10005000E3010008E3010008E3010008E3010008F0
:10006000E3010008E3010008E3010008E3010008E0
:10007000E3010008E3010008E3010008E3010008D0
:10008000E3010008E3010008E3010008E3010008C0
:1000900089300008E3010008E3010008E3010008DB
:1000A000E3010008E3010008E3010008E3010008A0
:1000B000E3010008E3010008E3010008E301000890
:1000C000E3010008E3010008E3010008E301000880
:1000D000E3010008E3010008E3010008E301000870
:1000E000E3010008E3010008E301000800F002F862
:1000F00000F05AF80AA090E8000C82448344AAF168
:100100000107DA4501D100F04FF8AFF2090EBAE865
:100110000F0013F0010F18BFFB1A43F0010318473B
:100120006C3100008C3100000A444FF0000C10F8D4
:10013000013B13F0070408BF10F8014B1D1108BF65
:1001400010F8015B641E05D010F8016B641E01F805
:10015000016BF9D113F0080F1EBF10F8014BAD1C55
:100160000C1B09D16D1E58BF01F801CBFAD505E073
:1001700014F8016B01F8016B6D1EF9D59142D6D3CD
:10018000704700000023002400250026103A28BFF5
:1001900078C1FBD8520728BF30C148BF0B607047F9
:1001A0001FB51FBD10B510BD00F0ACF81146FFF72C
:1001B000F7FF02F0B5FF00F0CAF803B4FFF7F2FF53
:1001C00003BC00F0D1F80000094880470948004707
:1001D000FEE7FEE7FEE7FEE7FEE7FEE7FEE7FEE7F7
:1001E000FEE7FEE704480549054A064B7047000054
:1001F000E31A0008ED000008F8090020F8130020B9
:10020000F80F0020F80F002010B5203AC0F00B8046
:10021000B1E81850203AA0E81850B1E81850A0E80A
:100220001850BFF4F5AF5FEA027C24BFB1E8185064
:10023000A0E8185044BF18C918C0BDE810405FEAD4
:10024000827C24BF51F8043B40F8043B08BF704750
:10025000D20728BF31F8023B48BF11F8012B28BF55
:1002600020F8023B48BF00F8012B70474FF0000216
:100270000429C0F0128010F0030C00F01B80CCF1B8
:10028000040CBCF1020F18BF00F8012BA8BF20F826
:10029000022BA1EB0C0100F00DB85FEAC17C24BF7A
:1002A00000F8012B00F8012B48BF00F8012B704724
:1002B0004FF0000200B5134694469646203922BFFF
:1002C000A0E80C50A0E80C50B1F12001BFF4F7AF4A
:1002D000090728BFA0E80C5048BF0CC05DF804EB2C
:1002E000890028BF40F8042B08BF704748BF20F89A
:1002F000022B11F0804F18BF00F8012B7047704798
:1003000070477047754600F02BF8AE460500694609
:10031000534620F00700854618B020B5FFF762FF6E
:10032000BDE820404FF000064FF000074FF00008F6
:100330004FF0000B21F00701AC46ACE8C009ACE877
:10034000C009ACE8C009ACE8C0098D46704710B5DB
:100350000446AFF300802046BDE81040FFF72DBFF4
:10036000004870479409002001491820ABBEFEE701
:10037000260002007047FEE700207047002070470B
:1003800000207047704700B502464FF47A7302E0D0
:10039000184600F003F8521EFAD200BD00EBC00070
:1003A000C1004FF0E0204161002181610521016120
:1003B0000169C903FCD504210161704772B6FEE7EB
:1003C0002DE9F84FDFF8B8910024A9F1040B23467A
:1003D0000F2709F1040AABF1040EC9E00125A5407D
:1003E0002A40AA427DD1674ED1F804C0ACEB060882
:1003F000B44532D014DCBCF1030F3AD009DCBCF1B7
:10040000000F2AD0BCF1010F1CD0BCF1020F31D17A
:100410001DE0BCF1110F17D0BCF1120F2AD119E069
:10042000B8F5881F19D006DCB8F5803F15D0B8F5AF
:10043000801F1FD111E0B8F5001F0ED0B8F5041FC2
:1004400018D10AE0CB6815E0CB681B1D12E0CB6821
:1004500008330FE0CB680C330CE08B682BB1012B19
:100460004FF0080303D0456104E0042302E0056176
:1004700000E00023FF2A01D8064601E000F104064F
:100480004FEA840501D9A5F12005D6F8008007FAC6
:1004900005FC28EA0C0803FA05F548EA0508C6F841
:1004A00000804D68ED0062D5374DAE6946F001061B
:1004B000AE61AD6924F0030605F001050095334DEA
:1004C00006EB050CDCF80850A607360F07FA06F80D
:1004D00025EA0805DFF8B880404503D14FF0000851
:1004E00017E044E0DFF8AC80404502D14FF001084E
:1004F0000FE0DFF8A480404502D14FF0020808E089
:10050000DFF89880404502D14FF0030801E04FF03A
:10051000040808FA06F848EA0508CCF808804D688F
:10052000D9F80060ED024D4601D5164300E0964330
:100530002E604D68DAF80060AD02554601D51643CD
:1005400000E096432E604D68DBF80060AD035D4629
:1005500001D5164300E096432E604D68DEF800603A
:10056000ED03754601D5164300E096432E60641CEA
:100570000D682A46E5407FF431AFBDE8F88F0000F2
:10058000080401400000111000100240000001406A
:1005900000080140000C014000100140001401401F
:1005A0008068084000D00120704700000148806842
:1005B000704700008C0000200248816802781144D6
:1005C000816070478C000020074810B5016841F039
:1005D00010010160032000F075F80F2000F006F80C
:1005E00000F024F8002010BD0020024070B50D4D31
:1005F00004464FF47A712878B1FBF0F00A49096893
:10060000B1FBF0F000F0E4FF48B9102C07D2002253
:100610002146501E00F036F800206C6070BD0120AD
:1006200070BD00008C000020980000200C4808B528
:10063000816941F001018161816901F0010100914D
:10064000C16941F08051C161C06900F080500090E3
:100650000448416821F0E06141F00071416008BD4B
:100660000010024000000140002809DB00F01F02DA
:10067000012191404009800000F1E020C0F8001104
:1006800070470000F0B40E4B1B680C46C3F3022306
:10069000C3F10705042D00D90425191D072901D22E
:1006A000002300E0DB1E012606FA05F1491E214069
:1006B00099409E40761E16403143F0BC02F020BDAA
:1006C0000CED00E0064900F0070208684FF6FF0352
:1006D000184040EA0220034A1043086070470000B7
:1006E0000CED00E00000FA0510B50C0607D501F08E
:1006F000070101EB810100EBC100283005E001EBAF
:10070000810100EBC10000F5B47099B232B1012251
:1007100002730181190C4181002010BD0022027377
:10072000C180F9E7704701EB810200EBC202D0F80B
:10073000EC02D26B01F083BC01EB810200EBC20240
:10074000D0F8EC02D2F87C2101F0DCBC70B5044694
:100750000B0601F0070000EB800104EBC1014FF034
:1007600001024FF0000503D581F82920283103E06C
:1007700081F8695101F5B471087094F8A802012854
:1007800008D084F8A822206802F012F984F8A85250
:10079000002070BD022070BD70B5044601F00F004E
:1007A0006268904201D9012070BD0B0601F007007C
:1007B00000EB800104EBC1014FF001024FF0000596
:1007C00003D581F82920283103E081F8695101F52A
:1007D000B4718D70087094F8A802012808D084F8CC
:1007E000A822206802F081F984F8A852002070BD88
:1007F000022070BD2DE9F05F04685FEA424C0B787F
:100800008D69B4F850C04FF000064BF68F7948F26E
:10081000800A48F68F7B48F2C00E4FF480672AD5D5
:100820004FF0020808EBC308C44407EB4C07E45B35
:10083000C4F30904A54203D32D1B8D6101D00BE045
:100840008E61066836F8235005EA090585F40055DF
:1008500045EA0A0526F82350520609D50D780368A3
:1008600033F8252002EA0B0242EA0E0223F8252083
:1008700084B30A8929E04FF0060808EBC308C44492
:1008800007EB4C07E45BC4F30904A54203D32D1B1B
:100890008D6101D00BE08E61066836F8235005EAC1
:1008A000090585F4005545EA0A0526F82350520645
:1008B00009D40B78056835F8232002EA0B0242EAD6
:1008C0000E0225F823202CB14A8949690068234685
:1008D00002F0E4FB2046BDE8F09F2DE9F05F0546FD
:1008E00000680C465FEA426C16468B692278B0F8C5
:1008F00050C048F68F774CF280094FF4004B4FF60A
:10090000FF7E4FF4806A4FF0000172D54FF002086D
:1009100008EBC208E0440AEB480C30F80C00C0F3C6
:100920000900834211D91B1AA3610FD0730407D5A4
:100930002E6836F822303B4043EA090326F822307D
:1009400094F82420012A47D052E1A161607810B1C7
:10095000012813D01AE02868B0F85030184400EB92
:100960000210B0F80424C2F30902A0F80424B0F87D
:10097000042442F40042A0F8042407E02868B0F8F8
:100980005030184400EB0210A0F804146278286874
:1009900012B1012A11D018E0B0F8501008442178A3
:1009A00000EB0110B0F80C14C1F30901A0F80C140D
:1009B000B0F80C1441F4004105E0B0F850201044A8
:1009C000227800EB0210A0F80C1421782846FFF7DB
:1009D000AAFE700472D40BE1626902446261E269AA
:1009E0000244E2612369226A9A4203D31846111A2B
:1009F00004E03EE084F824100AB1104621626178D8
:100A000011B1012929D031E02968B1F850201144F1
:100A1000227801EB0211B1F80424C2F30902A1F813
:100A2000042401F204413E2807D94209C30600D13B
:100A3000521E0B884BEA822207E048B14208C307E6
:100A400000D0521C0B880EEA822213430B800DE06B
:100A50000A8842F400420A8008E02968B1F8502070
:100A60001144227801EB0211A1F8040483B2228917
:100A7000BAE04FF0060808EBC208E0440AEB480C65
:100A800030F80C00C0F30900834211D31B1AA36194
:100A90000FD0730407D42E6836F822303B4043EA67
:100AA000090326F8223094F82420012A51D09FE02F
:100AB000A161607818B1012814D01BE03FE02868DC
:100AC000B0F85030184400EB0210B0F80424C2F320
:100AD0000902A0F80424B0F8042442F40042A0F86B
:100AE000042407E02868B0F85030184400EB0210E6
:100AF000A0F804146278286812B1012A11D018E015
:100B0000B0F850100844217800EB0110B0F80C1434
:100B1000C1F30901A0F80C14B0F80C1441F4004121
:100B200005E0B0F850201044227800EB0210A0F845
:100B30000C1421782846FFF7F6FD700458D422786B
:100B4000296831F82200384040EA090021F82200E3
:100B50004EE0626902446261E2690244E261236933
:100B6000226A9A4203D31846111A216204E00AB19C
:100B70001046216284F824106278296812B1012A93
:100B800028D02FE0B1F850201144227801EB021157
:100B9000B1F80C24C2F30902A1F80C2401F20C41B3
:100BA0003E2807D94209C30600D1521E0B884BEAE2
:100BB000822207E048B14208C30700D0521C0B88CC
:100BC0000EEA822213430B800CE00A8842F40042B2
:100BD0000A8007E0B1F850201144227801EB02119D
:100BE000A1F80C04628983B26169286802F074FA82
:100BF0002278296831F8220048F6BF73184080F047
:100C0000300048F28003184321F822000020BDE89C
:100C1000F09F2DE9F04104460F0601F0070000EBBC
:100C2000800104EBC1014FF001064FF0000503D530
:100C300081F82960283103E081F8695101F5B47128
:100C4000022B08700A61CB7000D10D7194F8A802D4
:100C5000012809D084F8A862206801F059FD2846CF
:100C600084F8A852BDE8F0810220FBE710B501F03E
:100C7000070404EB840100EBC101C1E95F230022FA
:100C8000C1F8842181F8692181F86841006801F583
:100C9000B47101F07FFF002010BD70B504460D4611
:100CA00001F007006168884201D9012070BD290662
:100CB0004FF000064FF0010207D500EB800104EB76
:100CC000C10181F82920283107E005EB850104EBFB
:100CD000C10181F8696101F5B4718A70087094F8F6
:100CE000A802012807D084F8A822206801F039FF63
:100CF000680702D006E0022070BD04F52C71206860
:100D000001F0F1FE84F8A862002070BD10B501F07A
:100D1000070404EB840100EBC101C1E90F230122A8
:100D200081F84C208B6400234B6481F8292001F862
:100D3000284F006801F02EFF002010BD1FB50446AB
:100D4000006802F0A7F9010403D5204600F0B4FCC6
:100D50001FBD41050DD5206830F8441F21F4806186
:100D60000180204600F010F90021204600F027F90C
:100D70001FBD410405D5206830F8441F21F480418F
:100D800074E0810405D5206830F8441F21F4005137
:100D90006CE0C10414D5206830F8401F21F0040134
:100DA0000180206830F8401F21F0080101802046B2
:100DB00000F0FDF8206830F8441F21F4805155E020
:100DC000010540D5D4F800200020694632F82030D3
:100DD00021F81030401CC0B20828F7D332F8400F79
:100DE00040F001001080206830F8402F22F001020E
:100DF00002802068B0F844205205FBD530F8442F1B
:100E000022F4806202800020236831F8102023F849
:100E10002020401CC0B20828F6D3206830F8401FBC
:100E200041F008010180206830F8441F21F400617E
:100E30000180206830F8401F41F004010180204605
:100E400000F0F2F81FBD810509D5206830F8441F75
:100E500021F400710180204600F0ADF81FBDC005EF
:100E6000FCD5206830F8441F21F4807101801FBD3B
:100E70002DE9F04186B0040004D094F8A9020025C1
:100E800020B108E0012006B0BDE8F08184F8A85246
:100E9000204600F05BF8032084F8A902206801F0E6
:100EA0001BFE04F11001142288466846FFF7ACF9D6
:100EB00094E80F0001F07AFD0227D0BB00212068E2
:100EC00002F002F9002001260EE000BF00EB8001D5
:100ED00004EBC10181F8296001F8280F401CCD7096
:100EE0000D614D61C0B28D6161688142EED8002014
:100EF00012E000BF00EB800104EBC10181F86951F1
:100F000081F8680181F86B51C1F87851C1F87C51C2
:100F1000401CC0B2C1F8805161688142EAD81422F5
:100F200041466846FFF770F994E80F0001F0CBFDE9
:100F300010B184F8A972A5E784F8245084F8A96256
:100F4000206801F0BEFD00209DE7000008B50068A4
:100F50000B49884212D10B48C16941F40001C161BB
:100F6000C069002200F40000009011461420FFF731
:100F700089FBBDE808401420FFF776BB08BD0000E0
:100F8000005C00400010024070B5044680680125F6
:100F9000022801D0FFF712FA2946D4F8EC0201F03A
:100FA0008EF9D4F8EC02BDE8704001F04AB9D0F8EF
:100FB000EC0201F06EB9D0F8EC0201F074B910B592
:100FC000044690F8A80201280BD0012084F8A8025A
:100FD00084F82410206802F079F8002084F8A80230
:100FE00010BD022010BDD0F8EC2200F52C71104687
:100FF00001F071B910B5044690F8A802012810D08C
:10100000012084F8A802206802F035F8012120466A
:10101000FFF788FB206801F052FD002084F8A80249
:1010200010BD022010BD000010B50446D0F8EC023F
:1010300001F090F9A069002804D00348016841F04C
:101040000601016010BD000010ED00E02DE9F8433D
:1010500005460078354CC00754D0E0690026C00032
:1010600008D4E06940F08050E061E069012600F0BA
:10107000805000902E480168C90512D4016880464E
:1010800041F480710160FFF791FA074605E000BF67
:10109000FFF78CFAC01B642823D8D8F80000C005DD
:1010A000F6D5206A10F4407021D0A98801F440716F
:1010B00081421CD0206A1F49012220F440700A603E
:1010C00000220A602062C00711D0FFF76FFA0746BE
:1010D00041F2883808E000BFFFF768FAC11B4145BC
:1010E00002D90320BDE8F883206A8007F4D5206A7E
:1010F000696820F44070084320621EB1E06920F066
:101100008050E0612878800705D56068A96820F4E0
:101110004040084360602878C00605D56068E968EB
:1011200020F48000084360600020DBE700100240EC
:1011300000700040400442422DE9F0470F46050090
:1011400061D0434E306800F00700B84209D23068E1
:1011500020F0070038433060306800F00700B842E4
:1011600051D128683B4C810712D5400703D56068F0
:1011700040F4E06060602878000703D5606840F4C0
:10118000605060606068A96820F0F000084360600B
:101190002878C00728D06868012810D02168022864
:1011A00010D0890700292EDA616821F0030101437C
:1011B0006160FFF7FBF9804641F288390DE0216854
:1011C0008903EFE78901EDE7FFF7F0F9A0EB0801EC
:1011D000494502D90320BDE8F0876068696800F0DE
:1011E0000C00B0EB810FEFD1306800F00700B8427F
:1011F0000BD9306820F0070038433060306800F0C9
:101200000700B84201D00120E5E72878400705D55E
:101210006068E96820F4E0600843606028780007AF
:1012200006D56068296920F4605040EAC10060601A
:1012300000F018F86168084AC1F30311515CC84016
:101240000649086006480068FFF7D0F90020C2E7A9
:101250000020024000100240723200089800002076
:10126000900000200E4A51680E4801F00C03042B38
:1012700011D0082B0FD10C48C1F38343C903C05CC4
:101280000AD55168084AC1F34041921E515C054A93
:101290005043B0FBF1F070470449484370470000E9
:1012A0000010024000127A006232000800093D007E
:1012B0002DE9F84F040070D02078C04DC00749D008
:1012C0006868C0F38100012807D06868C0F3810016
:1012D000022809D16868C00306D52868800339D57B
:1012E00060680028E7D035E06068B0F5803F0BD03B
:1012F00010B1B0F5A02F11D0286820F480302860FC
:10130000286820F4802002E0286840F480302860BB
:10131000606890B1FFF74AF906460AE0286840F491
:1013200080202860F0E700BFFFF740F9801B6428A9
:1013300073D828688003F7D50CE0FFF737F9064625
:1013400005E000BFFFF732F9801B6428F0D8286859
:101350008003F7D420789A4E80074FF001094FF0B0
:10136000000839D5686810F00C0F07D06868C0F322
:101370008100022809D16868C00306D42868800764
:1013800014D52069012808D110E02069B0B1C6F851
:101390000090FFF70BF9074605E00AE1FFF706F9B1
:1013A000C01B0228C4D828688007F7D5286861695F
:1013B00020F0F80040EAC10028600DE0C6F8008087
:1013C000FFF7F4F8074604E0FFF7F0F8C01B022827
:1013D00023D828688007F7D4207800072CD57948CF
:1013E000A169D9B1C0F80090FFF7E0F8074604E022
:1013F000FFF7DCF8C01B02280FD8686A8007F7D512
:1014000071484FF4FA510068B0FBF1F0009000BF52
:101410000098411E0091FAD20EE080E0C0F80080F2
:10142000FFF7C4F8074604E0FFF7C0F8C01B022826
:1014300075D8686A8007F7D42078400760D5E869D6
:101440000027C00008D4E86940F08050E861E869EE
:10145000012700F0805000905C480168C90513D452
:101460000168834641F480710160FFF79FF882466E
:1014700006E000BFFFF79AF8A0EB0A0064284ED8F8
:10148000DBF80000C005F5D5E06801280AD008B1F6
:10149000052813D0286A20F001002862286A20F06D
:1014A000040002E0286A40F001002862E06841F28E
:1014B000883B98B1FFF77AF882460BE0286A40F043
:1014C00004002862EEE700BFFFF770F8A0EB0A0106
:1014D00059455AD8286A8007F6D50CE0FFF766F818
:1014E000824605E0FFF762F8A0EB0A0159454CD8A7
:1014F000286A8007F6D41FB1E86920F08050E861BF
:10150000E06988B36968C1F38101022944D00228E7
:10151000C6F8608004D0FFF749F8044638E034E0AC
:10152000FFF744F8074604E0FFF740F8C01B022825
:101530002BD828688001F7D4206AB0F5803F05D108
:101540006868A16820F4003008436860D4E90801A5
:101550000843696821F4741108436860C6F8609014
:10156000FFF724F8044606E025E000BFFFF71EF869
:10157000001B022809D828688001F7D51BE000BFAE
:10158000FFF714F8001B022802D90320BDE8F88FEA
:1015900028688001F4D40EE00128F7D06868226A38
:1015A00000F48031914204D1616A00F470108842E5
:1015B00001D00120EAE70020E8E700000010024027
:1015C0000000424280044242980000200070004027
:1015D00010B5401EB0F1807F01D3012010BD4FF047
:1015E000E02460610F21601701F08AFD0020A061F6
:1015F00007202061002010BDFEE70000F0B50023A9
:101600000A24302537261F4611E000BFB4EB107FB7
:1016100002D905EB107C01E006EB107C01F813C049
:1016200001EB430C00015B1C8CF80170DBB29342B0
:10163000ECD3F0BD094808B5816941F02001816112
:10164000816901F020010091816941F0040181610B
:10165000806900F00400009008BD00000010024006
:1016600010B500220F49104800F0C2FC08B1FEF787
:10167000A5FE0E490C4800F093FE08B1FEF79EFE51
:101680000B49094800F0B6FA08B1FEF797FE064884
:1016900000F0DCFE002803D0BDE81040FEF78EBE4F
:1016A00010BD00000000002074010020A0000020F8
:1016B0007C000020FEE7FEE72DE9F84F044640F6E7
:1016C0008F7B48F60F794FF480684FF0000AC0E135
:1016D000B0F8441011F00F0539D030F8256031040E
:1016E0007ED530F8251001EA0B0141F0800120F889
:1016F000251005EB850004EBC00797F8740107F58A
:10170000B47700286DD0F87802286BD03978226839
:1017100032F8210048F68F73184048F2C00318438E
:1017200022F821003978206830F82120B0F85030B4
:1017300052047DD5022202EBC1015A1808EB420186
:10174000415A8905890D009173D03A89DFE0C906B5
:101750002DD4018801EA090141F40041018020688B
:1017600004F12805B0F850302978022202EBC101BB
:101770005A1808EB4201405AC0F309006064E16B5B
:101780000844E06300212046FEF7CDFF94F82400D2
:1017900000289CD0A869002899D194F824002168D9
:1017A00040F08000A1F84C0084F824A051E10188A9
:1017B00004F5B4750A0521D5B0F850202B78062120
:1017C00001EBC3010A4408EB4201405A04F52C71B5
:1017D000C0F30903EB61EA88206801F05FFC02E0D6
:1017E000B0E070E080E02068018801EA0B0141F080
:1017F000800101802046FFF7F6FB2AE10904D5D5D8
:10180000018801EA0B0141F0800101802068B0F8F5
:1018100050202B78062101EBC3010A4408EB42015A
:10182000405A83059B0DEB6110D0696971B101E0ED
:1018300061E05FE0EA88206801F030FCE9696869EE
:101840000844686100212046FEF776FF2168088879
:101850000205ABD4C0F301300328A7D0B1F8500083
:101860000844B0F80C14C1F30901A0F80C142A695B
:1018700000F20C403E2A09D95109D20600D1491E76
:1018800002884FF4004343EA812109E0B2B15108D4
:10189000D20700D0491C02884FF6FF7303EA81216A
:1018A0000A430280216808884BF68F72104080F44A
:1018B000405048F2800210430880CAE0018841F499
:1018C00000410180EEE72068B0F850203B78062107
:1018D00001EBC3010A4408EB4201415A8905890D15
:1018E000009118D0FA8812E0324639462046FEF7B9
:1018F00081FF00900FE0062202EBC1015A1808EBAD
:101900004201415A8905890D009104D07A8979698B
:10191000009B01F0C3FBF86900990844F8617969FC
:10192000009808447861B86918B139690098814213
:1019300004D939782046FEF7FFFE03E039462068D7
:1019400001F028F930062FD505EB850004EBC00126
:10195000206830F8252002EA090242F4004220F80B
:10196000252091F82B00283101281ED0F0056CD4D9
:101970002068B0F850300D78022202EBC5021A44FC
:1019800008EB4202805A8A69C0F30900824255D9A5
:10199000121A8A6154D04A6902444A61CA691044E1
:1019A000C861206801F0F6F853E0C1F818A0087B80
:1019B000524608B3700620D5487810B1012812D0DD
:1019C0003AE02068B0F8502010440A7800EB02108A
:1019D000B0F80424C2F30902A0F80424B0F80424E7
:1019E00042F4004206E02068B0F8503018440B780A
:1019F00000EB0310A0F804241EE04B78206813B11C
:101A0000012B11D018E0B0F8502010440A7800EBF8
:101A10000210B0F80C24C2F30902A0F80C24B0F8AC
:101A20000C2442F4004205E0B0F8503018440B7822
:101A300000EB0310A0F80C24097802E0C1F818A00C
:101A4000E9B22046FEF76FFE03E032462046FEF77D
:101A500044FF2068B0F8441009043FF539AE002077
:101A6000BDE8F88F70477047FEF7A6BD30B593B05C
:101A700028216846FEF71CFC14210AA8FEF718FC72
:101A8000002401200F9410941194010412948DE805
:101A9000130004904FF4E010CDE9081002250795DB
:101AA0006846FFF705FC08B172B6FEE70F20CDE9E6
:101AB0000A054FF48060CDE90C4002210AA80E947B
:101AC000FFF73AFB08B172B6FEE710200F901294B0
:101AD0000FA8FFF7BBFA002801D072B6FEE713B0DB
:101AE00030BD7047D0F8B802002180F85010084689
:101AF000704770B50546D0F8B842D5F8BC22617879
:101B0000D26820789047402322460121284600F0E1
:101B10008FFB002070BD70B50446812100F086FA6D
:101B2000002501212046E56200F080FAC4F86C51DE
:101B3000D4F8B80248B1D4F8BC0204F52E74806819
:101B40008047206800F0DFFD2560002070BD10B5E3
:101B5000D0F8B842E16C012908D1D0F8BC02237852
:101B60006178C268184690470020E064002010BDEC
:101B70000A21018000487047680100202921018066
:101B800000487047D8000020292101800048704794
:101B90000401002029210180004870473001002005
:101BA00070B50446002602230322812100F034FB95
:101BB00001250223032229462046E56200F02CFB82
:101BC0005420C4F86C5100F09FFDC4F8B80278B1FD
:101BD0000546002085F85000D4F8BC0240688047D4
:101BE00040232A460121204600F022FB304670BDEA
:101BF0000126FBE702460220002902D00020C2F89D
:101C0000BC12704710B5134690F89C42D0F8B82229
:101C1000032C0BD192F850400CB1012010BD0124CF
:101C200082F850400A46812100F09DFB002010BD43
:101C3000F8B50022D0F8B832ADF800200E7815467D
:101C4000144616F0600622D0202E56D14A78921EF5
:101C50000A2A52D2DFE802F01008515151515114B2
:101C60000C05887818644BE0012203F1400135E04F
:101C70004888000A586443E0012203F144012DE042
:101C80000122DA64CA88194600F064F838E04E7818
:101C900036B1062E0BD00A2E23D00B2E2DD128E0E4
:101CA00090F89C22032A28D10222694616E04B882C
:101CB0002226B6EB132F07D1CA88292A00D9292258
:101CC000D0F8BC120D6808E02126B6EB132F04D122
:101CD000CA880E4D092A00D90922294600F054F875
:101CE0000EE090F89C22032A07D1012203F148015B
:101CF000F4E790F89C22032A04D000F020F8022494
:101D00002046F8BD88789864FAE700005C0100205E
:101D100010B5D0F8B42252689047002010BD134689
:101D200010B50A46002100F083FA002010BD1346CA
:101D300010B50A46002100F016FB002010BD10B5BA
:101D40000446802100F0F4FA2046BDE8104000214E
:101D500000F0EEBA10B50323C0F85C21C0F894324D
:101D6000C0F8602113460A46002100F061FA002005
:101D700010BD10B505210023C0F894121A4619466B
:101D800000F056FA002010BD10B50223C261C0F861
:101D90009432026213460A46002100F0E4FA002061
:101DA00010BD10B504210023C0F894121A4619463C
:101DB00000F0D9FA002010BD10B50A46024903A070
:101DC00000F0E6F8004810BD380400204375737435
:101DD0006F6D2048494420436F6E666967000000BC
:101DE00012200880004870472000002010B50A46E5
:101DF000024903A000F0CCF8004810BD38040020D0
:101E0000437573746F6D2048494420496E74657240
:101E10006661636500000000042008800048704788
:101E20001C00002010B50A46024903A000F0B0F8DB
:101E3000004810BD3804002053544D6963726F652B
:101E40006C656374726F6E696373000010B50A4647
:101E5000024903A000F09CF8004810BD380400209F
:101E600053544D333220437573746F6D2048756D34
:101E7000616E20696E7465726661636500000000C2
:101E800010B51A200880401809D008220549FFF72C
:101E9000B5FB0449042210312046FFF7AFFB01488F
:101EA000801E10BD36000020F8B504460020ADF8B5
:101EB000000048880D46010A082948D2DFE801F0F1
:101EC0004704091747473C45D4F8B012207C0A68FC
:101ED00019E0207C02260028D4F8B40205D0C16A9B
:101EE00068468847014646703EE0816AF8E7C0B21E
:101EF00006282CD2DFE800F0030A1014181CD4F8CE
:101F0000B002426805E0694690471CE0D4F8B00290
:101F10008268E2B1207CF6E7D4F8B002C268F8E744
:101F2000D4F8B0020269F4E7D4F8B0024269F0E7ED
:101F3000D4F8B0028269ECE7207C40B9D4F8B4024E
:101F4000416B6846884701460EE0207C20B1294657
:101F50002046FFF7F4FEF8BDD4F8B402016B6846E2
:101F60008847014607204870BDF8000048B1EA885C
:101F700052B1824200D90246ADF800202046FFF758
:101F800003FFE8880028E6D12046FFF70AFFF8BDE6
:101F900070B5002300281ED00446002502E06D1C09
:101FA000EDB2641C2678002EF9D1022404EB45041E
:101FB00014801278CA545B1C0322CA5400245B1C90
:101FC00006E0CA545B1CDAB28C54521CD3B2401CDB
:101FD0000278002AF5D170BD01004FF0000004D056
:101FE000012901D0022901D0022070470120704749
:101FF00010B580B1D0F8B43213B10023C0F8B432B8
:1020000009B1C0F8B012012180F89C12027000F0F2
:10201000BBF8002010BD022010BD10B5D0F8C002E2
:10202000FEF7BAFBBDE81040FFF7D6BF10B5D0F8F9
:10203000C002FEF78BFBBDE81040FFF7CDBF2DE9D6
:10204000F0411746044651B1D4F8B40242691AB1BE
:1020500094F89C02032851D00220BDE8F081D4F806
:102060009432002504F11400022B03D0042B3AD043
:10207000C3B33CE0D0E903639E4207D9F11AC160C3
:102080008AB239462046FFF752FE12E08068B0FB64
:10209000F3F103FB110199B9984211D3D4F89812C6
:1020A00088420DD2002211462046FFF740FEC4F8B8
:1020B000985200231A461946204600F0B9F816E057
:1020C000D4F8B402C16829B194F89C02032801D164
:1020D000204688478021204600F02AF92046FFF755
:1020E00048FE04E0FFE78021204600F021F994F843
:1020F000A002012804D184F8A05201E020469047B4
:102100000020AAE770B51546044649B1D4F8B402D8
:1021100082691AB194F89C02032830D0022070BD65
:10212000D4F8941204F5AA70032902D005291ED010
:1021300027E0D0E903218A420BD9531AC36008462D
:10214000834200D303469AB229462046FFF7E7FDB3
:1021500017E0D4F8B402016929B194F89C0203286D
:1021600001D1204688472046FFF71BFE09E00020EA
:102170000146C4F89402204600F0DAF801E0204657
:102180009047002070BD000010B519490446C1F801
:10219000EC02C0F8C012174808600820486002200E
:1021A000886000208861C86108620846FEF760FE0A
:1021B00008B1FEF703F90022D4F8C0021823114633
:1021C00004F53074FEF790FA58230022802120682D
:1021D000FEF78AFA9823002281212068FEF784FA0C
:1021E000D823002201212068FEF77EFA002010BDCE
:1021F00090060020005C00400A0601F07F01D0F844
:10220000C00201EB810100EBC10002D590F82A0069
:10221000704790F86A01704710B51C461346D0F815
:10222000C0022246FEF7F5FCBDE81040FFF7D4BE21
:1022300010B5D0F8C002FEF719FDBDE81040FFF759
:10224000CBBE70B50022044640231146FFF7E4FFE1
:1022500040260125C4F864613346002280212046CF
:10226000C4F85851FFF7D8FF6662A56184F89C5204
:102270000020C4F894026060C4F8A402D4F8B80244
:1022800028B1D4F8B40200214268204690470020CB
:1022900070BD90F89C12042903D190F89D1280F82B
:1022A0009C120020704710B590F89C12032904D1AD
:1022B000D0F8B412C96901B18847002010BD01747B
:1022C0000020704710B5D0F8C002FEF778FEBDE8D8
:1022D0001040FFF781BE70B5044600F52A70054630
:1022E00000F04AF80120C4F89402B4F8AE02C4F831
:1022F000980294F8A80210F01F010AD001290DD00D
:10230000022910D000F08001204600F011F80020D2
:1023100070BD2946204600F09EF8F8E72946204681
:1023200000F0CAF9F3E72946204600F01DF9EEE770
:1023300010B5D0F8C002FEF7B0FCBDE81040FFF7C2
:102340004BBE10B5D0F8C002FEF754FEBDE81040F9
:10235000FFF742BE90F89C1280F89D12042180F88D
:102360009C120020704710B5D0F8C002FEF7CEFCDA
:10237000BDE81040FFF730BE0A7802704A7842701C
:102380008A78CB7802EB032242800A794B7902EB00
:10239000032282808A79C97902EB0121C1807047CA
:1023A0000246002011B1C2F8B412704702207047F3
:1023B00010B5D0F8B42202241AB11268904700B9BF
:1023C0000024204610BD000070B50E461E4D8978D1
:1023D00004462970012931D894F89C0202280BD0B8
:1023E00003280FD031462046FFF7A9FC2978204664
:1023F000BDE87040FFF78CBCD9B10320616084F860
:102400009C0209E071B16068884212D0C1B22046D6
:10241000FFF77EFC297861602046FFF7C9FF02289C
:102420000CD006E0022084F89C0220466160FFF791
:102430006FFC2046BDE87040FFF7B3BC3146204634
:10244000BDE87040FFF77BBC9C00002010B5FFF793
:1024500078FF002010BD2DE9F0410A78002612F027
:10246000600208D0202A01D0402A70D1D0F8B422CE
:10247000926890476DE04B78002201250A2B66D2C6
:10248000DFE803F0405D6557650805652C29FFF717
:102490000BFD5EE004468888D8B9C888C8B948886A
:1024A000802816D200F07F0794F89C02032810D0F1
:1024B00084F89E7239462046FFF704FF2046FFF756
:1024C00070FC1FB1022084F89C0242E084F89C5208
:1024D0003FE020463BE0FFF777FF3AE0CB88012B57
:1024E00035D190F89C32012B04D0022B02D0032B63
:1024F0002DD104E08260012200F1080116E00122E2
:10250000011D13E090F89C22012A03D0022A01D079
:10251000032A1CD1CA88022A19D1C560D0F8A41296
:1025200009B10321C160022200F10C01FFF72CFC6C
:102530000FE0498801290CD1C0F8A45211E090F8AD
:102540009C32012B08D0022B06D0032B04D0FFF7BE
:10255000F6FB3046BDE8F08149880129F9D1C0F881
:10256000A422FFF71EFCF4E72DE9F0410A460446D9
:1025700010780027097910F060030AD0202B01D0D1
:10258000402B50D1D4F8B4021146836820469847B6
:102590008FE0C0F34110012806D05078D0B3012855
:1025A0002AD003283FD107E0D4F8B402114683684B
:1025B0002046BDE8F041184794F89C02022802D05A
:1025C000032872D10AE071B380296ED02046FFF74C
:1025D000AFFE80212046FFF7ABFE6AE0508838B995
:1025E00031B1802904D0D08810B92046FFF7A0FE71
:1025F0002046FFF7D6FB5CE094F89C020228E2D06C
:10260000032852D1508898BB4806F1D02046FFF7E6
:1026100004FDEDE7FFE794F89C020026022803D0B2
:10262000032842D112E040E009B180293DD10806DB
:1026300001F07F0000EB800004EB800101D5143134
:1026400001E001F5AA7102220E602AE0080601F0FD
:102650000F0000EB800004EB80000AD5806920B3F6
:1026600001F07F0000EB800004EB800514350BE0E7
:102670001FE0D0F85801C0B101F07F0000EB8000EE
:1026800004EB800505F5AA7541B1802906D02046E6
:10269000FFF7B2FD10B10120286000E02E60022299
:1026A00029462046FFF770FB03E011462046FFF75E
:1026B00046FB3846BDE8F08170B5054608780C4603
:1026C00010F0600003D0202801D0402816D195F8E2
:1026D0009C02012803D0022801D003280ED12079C2
:1026E00001280BD8D5F8B402826828469047E188C3
:1026F000014306D12846FFF754FB02E02846FFF7C6
:102700001EFB002070BD704700487047380600204F
:102710002DE9F0470C78002630F8243048F68F1267
:102720001340CA78002A78D0012A7CD0022A02D02D
:10273000032A75D0012648F28002134320F8243082
:102740000D7830F8253048F68F7423402B4313431F
:1027500020F825300D7B48F2C00948F6BF734CF2D3
:10276000800A4BF68F77EDB3CD7891F800C0022D3B
:1027700030F82C507DD048F68F6805EA08051543DF
:1027800020F82C50B0F8505091F800C0054405EBEB
:102790000C15B1F808C02CF0010CA5F800C4B0F875
:1027A000505091F800C0054405EB0C15B1F80AC073
:1027B0002CF0010CA5F808C44D78002D7ED00D78C2
:1027C00030F825C05FEA4C4C07D530F825C00CEA3C
:1027D000040C4CEA0A0C20F825C091F800C030F82F
:1027E0002C5000E022E06D0606D530F82C50254034
:1027F00045EA090520F82C50CC780D78012C30F8EA
:10280000254004EA03047CD084F02003134320F81D
:102810002530C1E001E006E002E043F400738AE7FE
:1028200043F4C06387E743F4806384E74D784DB396
:10283000B0F850500F78054405EB0715CF8827F006
:102840000107A5F800740F7830F827506D0606D5FB
:1028500030F82750254045EA090520F82750CC7864
:10286000012C07D00C7830F82410194081F0200199
:1028700004E064E00C7830F824101940114320F88B
:10288000241090E0B0F850300D78034403EB0513AA
:10289000CD8825F00105A3F80854B0F850300D7824
:1028A000034403EB0513B3F80C54C5F30905A3F86F
:1028B0000C540D6903F20C433E2D00E045E00BD9AA
:1028C0004FEA551CED0601D1ACF1010C1D884FF407
:1028D000004848EA8C2C0BE035B34FEA550CED0765
:1028E00001D00CF1010C1D884FF6FF7808EA8C2C02
:1028F00045EA0C051D800D7830F825305B0408D5BD
:1029000000E046E030F82530234043EA0A0320F88F
:102910002530097861B130F821303B4083F4005311
:10292000134320F821303EE01D8845F40045E1E7DF
:102930000188394081F440511143018033E0254042
:1029400048F2801845EA08051AE791F800C030F807
:102950002C506D0406D530F82C50254045EA0A0568
:1029600020F82C5091F800C030F82C506D0606D598
:1029700030F82C50254045EA090520F82C500D78F8
:1029800030F825403C4084F44054144320F825405E
:1029900070E7144320F825400B7830F823103940B5
:1029A000114320F823103046BDE8F087002070471F
:1029B0002DE9F04391F80C804F780A7848F6BF7CF7
:1029C0004BF68F7948F2800348F2C0054CF280063E
:1029D00048F68F74B8F1000F28D0002F30F822701D
:1029E0004FEA474748D0002F05DA30F822702740D9
:1029F000374320F822700A7830F822707F0605D518
:102A000030F8227027402F4320F822700D7830F8DC
:102A100025202240324320F825200C7830F824204D
:102A200002EA0C021A4320F824201AE07FB130F8A1
:102A30002260760605D530F8226026402E4320F825
:102A400022600A7830F8221001EA0C010EE030F81A
:102A500022506D0405D530F822502540354320F82A
:102A600022500A7830F8221001EA0901194320F8AF
:102A700022100020BDE8F083002F05DA30F8227024
:102A80002740374320F822700A7830F82260760613
:102A900005D530F8226026402E4320F822600E78BB
:102AA00030F8262022402A4320F826200C7830F8DF
:102AB000242002EA09021A4320F82420C1E700205A
:102AC000704700207047012120F8401F002101803D
:102AD000818001820846704730F8401F21F43F4151
:102AE0000180002070470020704730B50A7BB2BBE0
:102AF0004A7848F68F7548F28004C2B10B7830F8F6
:102B00002320520607D530F823202A4048F2C0057A
:102B10002A4320F82320CA78012A20D00A7830F8E6
:102B2000221048F6BF73194081F0200114E00A78A2
:102B300030F822305B0407D530F822302B404CF2BD
:102B400080052B4320F822300A7830F822104BF60B
:102B50008F73194081F44051214320F82210002046
:102B600030BD10B54A780978002A48F2800330F861
:102B7000212005D048F6BF74224082F0100204E004
:102B80004BF68F74224082F480521A4320F82120A1
:102B9000002010BD2DE9F0470D464B78097B044617
:102BA0004FF0000948F68F7248F2800A4FF4004750
:102BB0004FF6FF78012B09D000296FD0E878022862
:102BC0006DD001286CD00120BDE8F087AE6928697E
:102BD000864200D9064691B1E97802291ED0286ABA
:102BE000801B2862287834F820104906B4F8501069
:102BF000214401EB001073D5A0F80C6416E1B3B2C8
:102C0000EA882046696900F067FAB4F8500029782C
:102C1000204400EB0110A0F804640DE1296A814210
:102C200077D9297834F82100104048F280121043F7
:102C300024F82100286A801B2862287834F82010A4
:102C40004906697871D511B101292AD030E0B4F86C
:102C50005010214401EB0010B0F80C14C1F309012D
:102C6000A0F80C1400F20C403E2E07D97109F206B0
:102C700000D1491E028847EA812107E04EB1710860
:102C8000F20700D0491C028808EA81210A43028029
:102C90000EE0018841F40041018009E0F1E020E10B
:102CA00095E1B4F85020111901EB0010A0F80C6464
:102CB0006A89B3B22046696900F00EFA6869304447
:102CC00068612969286A884202D9801B286202E06B
:102CD0000646C5F82090687818B101282BD032E05C
:102CE0002FE0B4F850002978204400EB0110B0F830
:102CF0000414C1F30901A0F8041400F204403E2EAC
:102D000008D97109F20600D1491E028847EA8121DB
:102D100008E0A1E056B17108F20700D0491C028812
:102D200008EA81210A4302800DE00EE0018841F4A7
:102D30000041018007E0B4F850002978204400EBFE
:102D40000110A0F804642A8971E011B1012927D08B
:102D50002DE0B4F85010214401EB0010B0F8041439
:102D6000C1F30901A0F8041400F204403E2E07D973
:102D70007109F20600D1491E028847EA812107E065
:102D80004EB17108F20700D0491C028808EA81217F
:102D90000A4302800BE0018841F40041018006E013
:102DA000B4F85010214401EB0010A0F804642A8903
:102DB000B3B22046696900F08FF9686930446861F0
:102DC0002969286A884202D9801B286202E00646E7
:102DD000C5F82090687810B1012836D026E0B4F804
:102DE00050002978204400EB0110B0F80C14C1F316
:102DF0000901A0F80C1400F20C403E2E07D971090D
:102E0000F20600D1491E028847EA812107E04EB14F
:102E10007108F20700D0491C028808EA81210A43A0
:102E2000028003E0018841F4004101806A89B3B265
:102E30002046696900F050F9297834F8210048F6F5
:102E4000BF72104080F030000FE1B4F85010081944
:102E5000297800EB0110CFE62A7834F8220048F6F2
:102E60008F63184040EA0A0024F82200B4F85000AA
:102E70002A78204400EB02108BB2A0F804342A898F
:102E8000D6E7A9692869814202D9091AA96102E035
:102E90000846C5F81890B4F850102A78214401EB80
:102EA0000211B1F80C24C2F30902A1F80C2401F2BA
:102EB0000C413E287DD94209C00600D1521E088827
:102EC00047EA82220AE0088840F4004007E042080E
:102ED000C00700D0521C088808EA822210430880EC
:102EE000BBE033BBB4F850002978204400EB01105C
:102EF000B0F80414C1F30901A0F80414296900F220
:102F000004403E2907D94B09C90600D15B1E018840
:102F100047EA832307E041B14B08C90700D05B1C97
:102F2000018808EA8323194302E0018841F4004143
:102F30000180687810B1012828D030E0B4F8500042
:102F40002978204400EB0110B0F80C14C1F30901FA
:102F5000A0F80C14296900F20C403E2907D94B094E
:102F6000C90600D15B1E018847EA832307E041B10F
:102F70004B08C90700D05B1C018808EA832319436A
:102F800002E0018841F40041018008E0B4F85010EB
:102F90000819297800EB0110298AA0F80C14E869B7
:102FA000C0B3297834F82100430401D5430605D481
:102FB00000E046E044F2400318424ED134F82100CC
:102FC000104048F2C002104324F8210045E0A969EE
:102FD0002869814202D9091AA96102E00846C5F8A8
:102FE000189013BBB4F850102A78214401EB021159
:102FF000B1F80424C2F30902A1F8042401F2044147
:103000003E2808D94209C30600D1521E0B8847EA60
:10301000822208E021E078B14208C30700D0521CA8
:103020000B8808EA822213430B80697800293FF459
:103030002EAF012909D010E00A8842F400420A802C
:10304000F3E700287FF443AF3DE7B4F850201119AF
:103050002A7801EB0211A1F80C04297834F8210038
:103060004BF68F72104080F4405040EA0A0024F87A
:1030700021000020A8E50021A0F844104FF43F41B2
:10308000A0F84010002070470148FDF757BE00002F
:1030900090060020B0F844007047000010B500EB27
:1030A00042005C0800F5806009D000BF30F8042BB6
:1030B00001F8012B120A01F8012B641EF6D1DA0780
:1030C00001D00088087010BD0020704711B9802120
:1030D000A0F84C100020704710B55B1C00EB4200BC
:1030E0005B0800F5806009D011F8012B11F8014B45
:1030F00042EA042220F8042B5B1EF5D110BDFEE746
:103100000907090E002804DB00F1E02080F8001414
:10311000704700F00F0000F1E02080F8141D7047A8
:1031200086B0FDF751FAFEF7A1FC1248816941F023
:10313000040181618069104C00F00400049040207B
:103140000090002001900120029069462046FDF782
:1031500037F900F013F8FEF76DFAFEF781FA012156
:103160002046FDF71DFA0028F9D1222000F014F8BE
:10317000F5E7000000100240000801401FB50120E3
:103180000021CDE90001029069460248FDF718F9D7
:103190001FBD00000008014010B5044600F030F8E3
:1031A0003220FDF7F0F82046BDE81040AFF3008074
:1031B00070B5012505EBD00411210E48FDF756F836
:1031C0000C4E202135700C4D2846FDF7E9F948B921
:1031D0006420FDF7E3F820212846FDF7E1F908B95E
:1031E00000203055BDE87040112202490348FEF727
:1031F00009BD00008009002000100140740100207A
:103200002DE9F0410446012606EBD40511211048B2
:10321000FDF72CF80E4F20213E700E4E3046FDF784
:10322000BFF970B96420FDF7B9F820213046FDF7E9
:10323000B7F930B9084904F00700084410F8010C48
:103240007855BDE8F041112201490448FEF7DABC87
:103250008009002000100140823200087401002023
:10326000010202030405060708090A0B0C0D0E0FE4
:103270001010000000000000000001020304060717
:10328000080901020408102040800000AC32000848
:103290000000002074010000280100087C330008B1
:1032A00074010020841200008401000813E11D1441
:1032B00008191E1B0825041A4D041A81041AB91492
:1032C0001AED0417040309041201320216408304A4
:1032D0005057260201020301031A1A0310140501B4
:1032E0000906A101850175019508050719E029E77F
:1032F00015280925018102957875010A19141136DE
:1033000029778102C0225014207D031B0879041AFA
:103310008104195B1182105324F413A11B1B08179D
:103320000413311C42081A4F0C13E51A1B08F3044E
:10333000C11A89181A7D041A95041A710414090215
:103340002913010125C03209042A02B115092111EE
:1033500001140122291607058103022D0507050125
:1033600007291A592C5AFA2C0A21012C09235869C9
:0C3370001A31130A0632022A40E4000061
:04000005080000ED02
:00000001FF
